{
  "contractName": "ArbitrageBot",
  "abi": [
    {
      "inputs": [],
      "stateMutability": "nonpayable",
      "type": "constructor"
    },
    {
      "anonymous": false,
      "inputs": [
        {
          "indexed": false,
          "internalType": "string",
          "name": "message",
          "type": "string"
        }
      ],
      "name": "OperationFailed",
      "type": "event"
    },
    {
      "anonymous": false,
      "inputs": [
        {
          "indexed": false,
          "internalType": "string",
          "name": "message",
          "type": "string"
        }
      ],
      "name": "OperationSuccessful",
      "type": "event"
    },
    {
      "anonymous": false,
      "inputs": [
        {
          "indexed": false,
          "internalType": "address",
          "name": "token",
          "type": "address"
        },
        {
          "indexed": false,
          "internalType": "uint256",
          "name": "amount",
          "type": "uint256"
        }
      ],
      "name": "Withdrawn",
      "type": "event"
    },
    {
      "inputs": [],
      "name": "EURO3",
      "outputs": [
        {
          "internalType": "address",
          "name": "",
          "type": "address"
        }
      ],
      "stateMutability": "view",
      "type": "function"
    },
    {
      "inputs": [],
      "name": "USDC",
      "outputs": [
        {
          "internalType": "address",
          "name": "",
          "type": "address"
        }
      ],
      "stateMutability": "view",
      "type": "function"
    },
    {
      "inputs": [],
      "name": "poolFee",
      "outputs": [
        {
          "internalType": "uint24",
          "name": "",
          "type": "uint24"
        }
      ],
      "stateMutability": "view",
      "type": "function"
    },
    {
      "inputs": [],
      "name": "swapRouter",
      "outputs": [
        {
          "internalType": "contract ISwapRouter",
          "name": "",
          "type": "address"
        }
      ],
      "stateMutability": "view",
      "type": "function"
    },
    {
      "inputs": [
        {
          "internalType": "uint256",
          "name": "usdcAmount",
          "type": "uint256"
        },
        {
          "internalType": "uint256",
          "name": "amountOutMinimum",
          "type": "uint256"
        }
      ],
      "name": "buyEURO3",
      "outputs": [],
      "stateMutability": "nonpayable",
      "type": "function"
    },
    {
      "inputs": [
        {
          "internalType": "uint256",
          "name": "euro3Amount",
          "type": "uint256"
        },
        {
          "internalType": "uint256",
          "name": "amountOutMinimum",
          "type": "uint256"
        }
      ],
      "name": "sellEURO3",
      "outputs": [],
      "stateMutability": "nonpayable",
      "type": "function"
    },
    {
      "inputs": [
        {
          "internalType": "address",
          "name": "token",
          "type": "address"
        },
        {
          "internalType": "uint256",
          "name": "amount",
          "type": "uint256"
        }
      ],
      "name": "withdrawToken",
      "outputs": [],
      "stateMutability": "nonpayable",
      "type": "function"
    }
  ],
  "bytecode": "0x608060405234801561000f575f80fd5b50335f806101000a81548173ffffffffffffffffffffffffffffffffffffffff021916908373ffffffffffffffffffffffffffffffffffffffff1602179055506113718061005c5f395ff3fe608060405234801561000f575f80fd5b506004361061007b575f3560e01c806389e2247c1161005957806389e2247c146100d75780639e281a98146100f3578063c31c9c071461010f578063fd9918a41461012d5761007b565b8063089fe6aa1461007f5780635489d8a31461009d57806389a30271146100b9575b5f80fd5b61008761014b565b6040516100949190610b47565b60405180910390f35b6100b760048036038101906100b29190610b97565b610151565b005b6100c1610404565b6040516100ce9190610c14565b60405180910390f35b6100f160048036038101906100ec9190610b97565b61041c565b005b61010d60048036038101906101089190610c57565b6106cf565b005b610117610859565b6040516101249190610cf0565b60405180910390f35b610135610871565b6040516101429190610c14565b60405180910390f35b610bb881565b5f8054906101000a900473ffffffffffffffffffffffffffffffffffffffff1673ffffffffffffffffffffffffffffffffffffffff163373ffffffffffffffffffffffffffffffffffffffff16146101de576040517f08c379a00000000000000000000000000000000000000000000000000000000081526004016101d590610d63565b60405180910390fd5b6101fe73a0e4c84693266a9d3bbef2f394b33712c76599ab333085610889565b61023173a0e4c84693266a9d3bbef2f394b33712c76599ab73e592427a0aece92de3edee1f18e0157c05861564846109db565b5f60405180610100016040528073a0e4c84693266a9d3bbef2f394b33712c76599ab73ffffffffffffffffffffffffffffffffffffffff168152602001732791bca1f2de4661ed88a30c99a7a9449aa8417473ffffffffffffffffffffffffffffffffffffffff168152602001610bb862ffffff1681526020013073ffffffffffffffffffffffffffffffffffffffff168152602001610384426102d59190610dae565b81526020018481526020018381526020015f73ffffffffffffffffffffffffffffffffffffffff16815250905073e592427a0aece92de3edee1f18e0157c0586156473ffffffffffffffffffffffffffffffffffffffff1663414bf389826040518263ffffffff1660e01b815260040161034f9190610ebd565b6020604051808303815f875af192505050801561038a57506040513d601f19601f820116820180604052508101906103879190610eeb565b60015b6103c8577f30024b247c7fb2eb5c560ad78987e1319ca2813e167ae8483d4a6f60517bd8996040516103bb90610f60565b60405180910390a16103ff565b507fcacbdfbaa18b3334b8bedfa98bf80d91bce6c72b64ebc203ea712eedf8c5fdb76040516103f690610fc8565b60405180910390a15b505050565b732791bca1f2de4661ed88a30c99a7a9449aa8417481565b5f8054906101000a900473ffffffffffffffffffffffffffffffffffffffff1673ffffffffffffffffffffffffffffffffffffffff163373ffffffffffffffffffffffffffffffffffffffff16146104a9576040517f08c379a00000000000000000000000000000000000000000000000000000000081526004016104a090610d63565b60405180910390fd5b6104c9732791bca1f2de4661ed88a30c99a7a9449aa84174333085610889565b6104fc732791bca1f2de4661ed88a30c99a7a9449aa8417473e592427a0aece92de3edee1f18e0157c05861564846109db565b5f604051806101000160405280732791bca1f2de4661ed88a30c99a7a9449aa8417473ffffffffffffffffffffffffffffffffffffffff16815260200173a0e4c84693266a9d3bbef2f394b33712c76599ab73ffffffffffffffffffffffffffffffffffffffff168152602001610bb862ffffff1681526020013073ffffffffffffffffffffffffffffffffffffffff168152602001610384426105a09190610dae565b81526020018481526020018381526020015f73ffffffffffffffffffffffffffffffffffffffff16815250905073e592427a0aece92de3edee1f18e0157c0586156473ffffffffffffffffffffffffffffffffffffffff1663414bf389826040518263ffffffff1660e01b815260040161061a9190610ebd565b6020604051808303815f875af192505050801561065557506040513d601f19601f820116820180604052508101906106529190610eeb565b60015b610693577f30024b247c7fb2eb5c560ad78987e1319ca2813e167ae8483d4a6f60517bd89960405161068690611030565b60405180910390a16106ca565b507fcacbdfbaa18b3334b8bedfa98bf80d91bce6c72b64ebc203ea712eedf8c5fdb76040516106c190611098565b60405180910390a15b505050565b5f8054906101000a900473ffffffffffffffffffffffffffffffffffffffff1673ffffffffffffffffffffffffffffffffffffffff163373ffffffffffffffffffffffffffffffffffffffff161461075c576040517f08c379a000000000000000000000000000000000000000000000000000000000815260040161075390610d63565b60405180910390fd5b5f8273ffffffffffffffffffffffffffffffffffffffff1663a9059cbb33846040518363ffffffff1660e01b81526004016107989291906110c5565b6020604051808303815f875af11580156107b4573d5f803e3d5ffd5b505050506040513d601f19601f820116820180604052508101906107d89190611121565b9050801561081e577f7084f5476618d8e60b11ef0d7d3f06914655adb8793e28ff7f018d4c76d505d583836040516108119291906110c5565b60405180910390a1610854565b7f30024b247c7fb2eb5c560ad78987e1319ca2813e167ae8483d4a6f60517bd89960405161084b90611196565b60405180910390a15b505050565b73e592427a0aece92de3edee1f18e0157c0586156481565b73a0e4c84693266a9d3bbef2f394b33712c76599ab81565b5f808573ffffffffffffffffffffffffffffffffffffffff166323b872dd60e01b8686866040516024016108bf939291906111b4565b604051602081830303815290604052907bffffffffffffffffffffffffffffffffffffffffffffffffffffffff19166020820180517bffffffffffffffffffffffffffffffffffffffffffffffffffffffff83818316178352505050506040516109299190611255565b5f604051808303815f865af19150503d805f8114610962576040519150601f19603f3d011682016040523d82523d5f602084013e610967565b606091505b509150915081801561099457505f815114806109935750808060200190518101906109929190611121565b5b5b6109d3576040517f08c379a00000000000000000000000000000000000000000000000000000000081526004016109ca906112b5565b60405180910390fd5b505050505050565b5f808473ffffffffffffffffffffffffffffffffffffffff1663095ea7b360e01b8585604051602401610a0f9291906110c5565b604051602081830303815290604052907bffffffffffffffffffffffffffffffffffffffffffffffffffffffff19166020820180517bffffffffffffffffffffffffffffffffffffffffffffffffffffffff8381831617835250505050604051610a799190611255565b5f604051808303815f865af19150503d805f8114610ab2576040519150601f19603f3d011682016040523d82523d5f602084013e610ab7565b606091505b5091509150818015610ae457505f81511480610ae3575080806020019051810190610ae29190611121565b5b5b610b23576040517f08c379a0000000000000000000000000000000000000000000000000000000008152600401610b1a9061131d565b60405180910390fd5b5050505050565b5f62ffffff82169050919050565b610b4181610b2a565b82525050565b5f602082019050610b5a5f830184610b38565b92915050565b5f80fd5b5f819050919050565b610b7681610b64565b8114610b80575f80fd5b50565b5f81359050610b9181610b6d565b92915050565b5f8060408385031215610bad57610bac610b60565b5b5f610bba85828601610b83565b9250506020610bcb85828601610b83565b9150509250929050565b5f73ffffffffffffffffffffffffffffffffffffffff82169050919050565b5f610bfe82610bd5565b9050919050565b610c0e81610bf4565b82525050565b5f602082019050610c275f830184610c05565b92915050565b610c3681610bf4565b8114610c40575f80fd5b50565b5f81359050610c5181610c2d565b92915050565b5f8060408385031215610c6d57610c6c610b60565b5b5f610c7a85828601610c43565b9250506020610c8b85828601610b83565b9150509250929050565b5f819050919050565b5f610cb8610cb3610cae84610bd5565b610c95565b610bd5565b9050919050565b5f610cc982610c9e565b9050919050565b5f610cda82610cbf565b9050919050565b610cea81610cd0565b82525050565b5f602082019050610d035f830184610ce1565b92915050565b5f82825260208201905092915050565b7f43616c6c6572206973206e6f7420746865206f776e65720000000000000000005f82015250565b5f610d4d601783610d09565b9150610d5882610d19565b602082019050919050565b5f6020820190508181035f830152610d7a81610d41565b9050919050565b7f4e487b71000000000000000000000000000000000000000000000000000000005f52601160045260245ffd5b5f610db882610b64565b9150610dc383610b64565b9250828201905080821115610ddb57610dda610d81565b5b92915050565b610dea81610bf4565b82525050565b610df981610b2a565b82525050565b610e0881610b64565b82525050565b610e1781610bd5565b82525050565b61010082015f820151610e325f850182610de1565b506020820151610e456020850182610de1565b506040820151610e586040850182610df0565b506060820151610e6b6060850182610de1565b506080820151610e7e6080850182610dff565b5060a0820151610e9160a0850182610dff565b5060c0820151610ea460c0850182610dff565b5060e0820151610eb760e0850182610e0e565b50505050565b5f61010082019050610ed15f830184610e1d565b92915050565b5f81519050610ee581610b6d565b92915050565b5f60208284031215610f0057610eff610b60565b5b5f610f0d84828501610ed7565b91505092915050565b7f53656c6c204555524f33206661696c65640000000000000000000000000000005f82015250565b5f610f4a601183610d09565b9150610f5582610f16565b602082019050919050565b5f6020820190508181035f830152610f7781610f3e565b9050919050565b7f53656c6c204555524f33207375636365737366756c00000000000000000000005f82015250565b5f610fb2601583610d09565b9150610fbd82610f7e565b602082019050919050565b5f6020820190508181035f830152610fdf81610fa6565b9050919050565b7f427579204555524f33206661696c6564000000000000000000000000000000005f82015250565b5f61101a601083610d09565b915061102582610fe6565b602082019050919050565b5f6020820190508181035f8301526110478161100e565b9050919050565b7f427579204555524f33207375636365737366756c0000000000000000000000005f82015250565b5f611082601483610d09565b915061108d8261104e565b602082019050919050565b5f6020820190508181035f8301526110af81611076565b9050919050565b6110bf81610b64565b82525050565b5f6040820190506110d85f830185610c05565b6110e560208301846110b6565b9392505050565b5f8115159050919050565b611100816110ec565b811461110a575f80fd5b50565b5f8151905061111b816110f7565b92915050565b5f6020828403121561113657611135610b60565b5b5f6111438482850161110d565b91505092915050565b7f5769746864726177616c206661696c65640000000000000000000000000000005f82015250565b5f611180601183610d09565b915061118b8261114c565b602082019050919050565b5f6020820190508181035f8301526111ad81611174565b9050919050565b5f6060820190506111c75f830186610c05565b6111d46020830185610c05565b6111e160408301846110b6565b949350505050565b5f81519050919050565b5f81905092915050565b5f5b8381101561121a5780820151818401526020810190506111ff565b5f8484015250505050565b5f61122f826111e9565b61123981856111f3565b93506112498185602086016111fd565b80840191505092915050565b5f6112608284611225565b915081905092915050565b7f53544600000000000000000000000000000000000000000000000000000000005f82015250565b5f61129f600383610d09565b91506112aa8261126b565b602082019050919050565b5f6020820190508181035f8301526112cc81611293565b9050919050565b7f53410000000000000000000000000000000000000000000000000000000000005f82015250565b5f611307600283610d09565b9150611312826112d3565b602082019050919050565b5f6020820190508181035f830152611334816112fb565b905091905056fea2646970667358221220e2d323cb636280143765657ae9678fdcc4749c0ba941a72d480a0657568c643c64736f6c63430008150033",
  "immutableReferences": {},
  "source": "// SPDX-License-Identifier: GPL-2.0-or-later\npragma solidity ^0.8.0;\n\nimport '@uniswap/v3-periphery/contracts/interfaces/ISwapRouter.sol';\nimport '@uniswap/v3-periphery/contracts/libraries/TransferHelper.sol';\nimport \"@openzeppelin/contracts/token/ERC20/IERC20.sol\";\n\ncontract ArbitrageBot {\n    ISwapRouter public constant swapRouter = ISwapRouter(0xE592427A0AEce92De3Edee1F18E0157C05861564);\n    address private owner;\n\n    address public constant USDC = 0x2791Bca1f2de4661ED88A30C99A7a9449Aa84174;\n    address public constant EURO3 = 0xA0e4c84693266a9d3BBef2f394B33712c76599Ab;\n    uint24 public constant poolFee = 3000; // Pool fee\n\n    event OperationSuccessful(string message);\n    event OperationFailed(string message);\n    event Withdrawn(address token, uint256 amount);\n\n    modifier onlyOwner() {\n        require(msg.sender == owner, \"Caller is not the owner\");\n        _;\n    }\n\n    constructor() {\n        owner = msg.sender;\n    }\n\n    function buyEURO3(uint256 usdcAmount, uint256 amountOutMinimum) external onlyOwner {\n        TransferHelper.safeTransferFrom(USDC, msg.sender, address(this), usdcAmount);\n        TransferHelper.safeApprove(USDC, address(swapRouter), usdcAmount);\n\n        ISwapRouter.ExactInputSingleParams memory params = \n            ISwapRouter.ExactInputSingleParams({\n                tokenIn: USDC,\n                tokenOut: EURO3,\n                fee: poolFee,\n                recipient: address(this),\n                deadline: block.timestamp + 15 minutes,\n                amountIn: usdcAmount,\n                amountOutMinimum: amountOutMinimum,\n                sqrtPriceLimitX96: 0\n            });\n\n        try swapRouter.exactInputSingle(params) {\n            emit OperationSuccessful(\"Buy EURO3 successful\");\n        } catch {\n            emit OperationFailed(\"Buy EURO3 failed\");\n        }\n    }\n\n    function sellEURO3(uint256 euro3Amount, uint256 amountOutMinimum) external onlyOwner {\n        TransferHelper.safeTransferFrom(EURO3, msg.sender, address(this), euro3Amount);\n        TransferHelper.safeApprove(EURO3, address(swapRouter), euro3Amount);\n\n        ISwapRouter.ExactInputSingleParams memory params = \n            ISwapRouter.ExactInputSingleParams({\n                tokenIn: EURO3,\n                tokenOut: USDC,\n                fee: poolFee,\n                recipient: address(this),\n                deadline: block.timestamp + 15 minutes,\n                amountIn: euro3Amount,\n                amountOutMinimum: amountOutMinimum,\n                sqrtPriceLimitX96: 0\n            });\n\n        try swapRouter.exactInputSingle(params) {\n            emit OperationSuccessful(\"Sell EURO3 successful\");\n        } catch {\n            emit OperationFailed(\"Sell EURO3 failed\");\n        }\n    }\n\n    function withdrawToken(address token, uint256 amount) external onlyOwner {\n        bool success = IERC20(token).transfer(msg.sender, amount);\n        if (success) {\n            emit Withdrawn(token, amount);\n        } else {\n            emit OperationFailed(\"Withdrawal failed\");\n        }\n    }\n}\n",
  "sourcePath": "/home/qwe/Desktop/arbitrage_bot/smart_contracts/contracts/buy_sell.sol",
  "compiler": {
    "name": "solc",
    "version": "0.8.21+commit.d9974bed.Emscripten.clang"
  },
  "schemaVersion": "3.4.16",
  "updatedAt": "2023-12-17T14:38:53.010Z",
  "devdoc": {
    "kind": "dev",
    "methods": {},
    "version": 1
  },
  "userdoc": {
    "kind": "user",
    "methods": {},
    "version": 1
  }
}