{
  "contractName": "ArbitrageBot",
  "abi": [
    {
      "inputs": [],
      "stateMutability": "nonpayable",
      "type": "constructor"
    },
    {
      "anonymous": false,
      "inputs": [
        {
          "indexed": false,
          "internalType": "string",
          "name": "message",
          "type": "string"
        }
      ],
      "name": "OperationFailed",
      "type": "event"
    },
    {
      "anonymous": false,
      "inputs": [
        {
          "indexed": false,
          "internalType": "string",
          "name": "message",
          "type": "string"
        }
      ],
      "name": "OperationSuccessful",
      "type": "event"
    },
    {
      "anonymous": false,
      "inputs": [
        {
          "indexed": false,
          "internalType": "address",
          "name": "token",
          "type": "address"
        },
        {
          "indexed": false,
          "internalType": "uint256",
          "name": "amount",
          "type": "uint256"
        }
      ],
      "name": "Withdrawn",
      "type": "event"
    },
    {
      "inputs": [],
      "name": "MATIC",
      "outputs": [
        {
          "internalType": "address",
          "name": "",
          "type": "address"
        }
      ],
      "stateMutability": "view",
      "type": "function",
      "constant": true
    },
    {
      "inputs": [],
      "name": "USDC",
      "outputs": [
        {
          "internalType": "address",
          "name": "",
          "type": "address"
        }
      ],
      "stateMutability": "view",
      "type": "function",
      "constant": true
    },
    {
      "inputs": [],
      "name": "poolFee",
      "outputs": [
        {
          "internalType": "uint24",
          "name": "",
          "type": "uint24"
        }
      ],
      "stateMutability": "view",
      "type": "function",
      "constant": true
    },
    {
      "inputs": [],
      "name": "swapRouter",
      "outputs": [
        {
          "internalType": "contract ISwapRouter",
          "name": "",
          "type": "address"
        }
      ],
      "stateMutability": "view",
      "type": "function",
      "constant": true
    },
    {
      "inputs": [
        {
          "internalType": "uint256",
          "name": "usdcAmount",
          "type": "uint256"
        },
        {
          "internalType": "uint256",
          "name": "amountOutMinimum",
          "type": "uint256"
        }
      ],
      "name": "buyMATIC",
      "outputs": [],
      "stateMutability": "nonpayable",
      "type": "function"
    },
    {
      "inputs": [
        {
          "internalType": "uint256",
          "name": "maticAmount",
          "type": "uint256"
        },
        {
          "internalType": "uint256",
          "name": "amountOutMinimum",
          "type": "uint256"
        }
      ],
      "name": "sellMATIC",
      "outputs": [],
      "stateMutability": "nonpayable",
      "type": "function"
    },
    {
      "inputs": [
        {
          "internalType": "address",
          "name": "token",
          "type": "address"
        },
        {
          "internalType": "uint256",
          "name": "amount",
          "type": "uint256"
        }
      ],
      "name": "withdrawToken",
      "outputs": [],
      "stateMutability": "nonpayable",
      "type": "function"
    }
  ],
  "bytecode": "0x608060405234801561000f575f80fd5b50335f806101000a81548173ffffffffffffffffffffffffffffffffffffffff021916908373ffffffffffffffffffffffffffffffffffffffff1602179055506113178061005c5f395ff3fe608060405234801561000f575f80fd5b506004361061007b575f3560e01c80639e281a98116100595780639e281a98146100d95780639eeb8a1d146100f55780639fd4d9df14610111578063c31c9c071461012d5761007b565b8063089fe6aa1461007f57806315b550d61461009d57806389a30271146100bb575b5f80fd5b61008761014b565b6040516100949190610aed565b60405180910390f35b6100a5610151565b6040516100b29190610b45565b60405180910390f35b6100c3610157565b6040516100d09190610b45565b60405180910390f35b6100f360048036038101906100ee9190610bbf565b61016f565b005b61010f600480360381019061010a9190610bfd565b6102f9565b005b61012b60048036038101906101269190610bfd565b61059a565b005b610135610817565b6040516101429190610c96565b60405180910390f35b610bb881565b61101081565b732791bca1f2de4661ed88a30c99a7a9449aa8417481565b5f8054906101000a900473ffffffffffffffffffffffffffffffffffffffff1673ffffffffffffffffffffffffffffffffffffffff163373ffffffffffffffffffffffffffffffffffffffff16146101fc576040517f08c379a00000000000000000000000000000000000000000000000000000000081526004016101f390610d09565b60405180910390fd5b5f8273ffffffffffffffffffffffffffffffffffffffff1663a9059cbb33846040518363ffffffff1660e01b8152600401610238929190610d36565b6020604051808303815f875af1158015610254573d5f803e3d5ffd5b505050506040513d601f19601f820116820180604052508101906102789190610d92565b905080156102be577f7084f5476618d8e60b11ef0d7d3f06914655adb8793e28ff7f018d4c76d505d583836040516102b1929190610d36565b60405180910390a16102f4565b7f30024b247c7fb2eb5c560ad78987e1319ca2813e167ae8483d4a6f60517bd8996040516102eb90610e07565b60405180910390a15b505050565b5f8054906101000a900473ffffffffffffffffffffffffffffffffffffffff1673ffffffffffffffffffffffffffffffffffffffff163373ffffffffffffffffffffffffffffffffffffffff1614610386576040517f08c379a000000000000000000000000000000000000000000000000000000000815260040161037d90610d09565b60405180910390fd5b6103a6732791bca1f2de4661ed88a30c99a7a9449aa8417433308561082f565b6103d9732791bca1f2de4661ed88a30c99a7a9449aa8417473e592427a0aece92de3edee1f18e0157c0586156484610981565b5f604051806101000160405280732791bca1f2de4661ed88a30c99a7a9449aa8417473ffffffffffffffffffffffffffffffffffffffff16815260200161101073ffffffffffffffffffffffffffffffffffffffff168152602001610bb862ffffff1681526020013073ffffffffffffffffffffffffffffffffffffffff1681526020016103844261046b9190610e52565b81526020018481526020018381526020015f73ffffffffffffffffffffffffffffffffffffffff16815250905073e592427a0aece92de3edee1f18e0157c0586156473ffffffffffffffffffffffffffffffffffffffff1663414bf389826040518263ffffffff1660e01b81526004016104e59190610f61565b6020604051808303815f875af192505050801561052057506040513d601f19601f8201168201806040525081019061051d9190610f8f565b60015b61055e577f30024b247c7fb2eb5c560ad78987e1319ca2813e167ae8483d4a6f60517bd89960405161055190611004565b60405180910390a1610595565b507fcacbdfbaa18b3334b8bedfa98bf80d91bce6c72b64ebc203ea712eedf8c5fdb760405161058c9061106c565b60405180910390a15b505050565b5f8054906101000a900473ffffffffffffffffffffffffffffffffffffffff1673ffffffffffffffffffffffffffffffffffffffff163373ffffffffffffffffffffffffffffffffffffffff1614610627576040517f08c379a000000000000000000000000000000000000000000000000000000000815260040161061e90610d09565b60405180910390fd5b61063561101033308561082f565b61065661101073e592427a0aece92de3edee1f18e0157c0586156484610981565b5f60405180610100016040528061101073ffffffffffffffffffffffffffffffffffffffff168152602001732791bca1f2de4661ed88a30c99a7a9449aa8417473ffffffffffffffffffffffffffffffffffffffff168152602001610bb862ffffff1681526020013073ffffffffffffffffffffffffffffffffffffffff168152602001610384426106e89190610e52565b81526020018481526020018381526020015f73ffffffffffffffffffffffffffffffffffffffff16815250905073e592427a0aece92de3edee1f18e0157c0586156473ffffffffffffffffffffffffffffffffffffffff1663414bf389826040518263ffffffff1660e01b81526004016107629190610f61565b6020604051808303815f875af192505050801561079d57506040513d601f19601f8201168201806040525081019061079a9190610f8f565b60015b6107db577f30024b247c7fb2eb5c560ad78987e1319ca2813e167ae8483d4a6f60517bd8996040516107ce906110d4565b60405180910390a1610812565b507fcacbdfbaa18b3334b8bedfa98bf80d91bce6c72b64ebc203ea712eedf8c5fdb76040516108099061113c565b60405180910390a15b505050565b73e592427a0aece92de3edee1f18e0157c0586156481565b5f808573ffffffffffffffffffffffffffffffffffffffff166323b872dd60e01b8686866040516024016108659392919061115a565b604051602081830303815290604052907bffffffffffffffffffffffffffffffffffffffffffffffffffffffff19166020820180517bffffffffffffffffffffffffffffffffffffffffffffffffffffffff83818316178352505050506040516108cf91906111fb565b5f604051808303815f865af19150503d805f8114610908576040519150601f19603f3d011682016040523d82523d5f602084013e61090d565b606091505b509150915081801561093a57505f815114806109395750808060200190518101906109389190610d92565b5b5b610979576040517f08c379a00000000000000000000000000000000000000000000000000000000081526004016109709061125b565b60405180910390fd5b505050505050565b5f808473ffffffffffffffffffffffffffffffffffffffff1663095ea7b360e01b85856040516024016109b5929190610d36565b604051602081830303815290604052907bffffffffffffffffffffffffffffffffffffffffffffffffffffffff19166020820180517bffffffffffffffffffffffffffffffffffffffffffffffffffffffff8381831617835250505050604051610a1f91906111fb565b5f604051808303815f865af19150503d805f8114610a58576040519150601f19603f3d011682016040523d82523d5f602084013e610a5d565b606091505b5091509150818015610a8a57505f81511480610a89575080806020019051810190610a889190610d92565b5b5b610ac9576040517f08c379a0000000000000000000000000000000000000000000000000000000008152600401610ac0906112c3565b60405180910390fd5b5050505050565b5f62ffffff82169050919050565b610ae781610ad0565b82525050565b5f602082019050610b005f830184610ade565b92915050565b5f73ffffffffffffffffffffffffffffffffffffffff82169050919050565b5f610b2f82610b06565b9050919050565b610b3f81610b25565b82525050565b5f602082019050610b585f830184610b36565b92915050565b5f80fd5b610b6b81610b25565b8114610b75575f80fd5b50565b5f81359050610b8681610b62565b92915050565b5f819050919050565b610b9e81610b8c565b8114610ba8575f80fd5b50565b5f81359050610bb981610b95565b92915050565b5f8060408385031215610bd557610bd4610b5e565b5b5f610be285828601610b78565b9250506020610bf385828601610bab565b9150509250929050565b5f8060408385031215610c1357610c12610b5e565b5b5f610c2085828601610bab565b9250506020610c3185828601610bab565b9150509250929050565b5f819050919050565b5f610c5e610c59610c5484610b06565b610c3b565b610b06565b9050919050565b5f610c6f82610c44565b9050919050565b5f610c8082610c65565b9050919050565b610c9081610c76565b82525050565b5f602082019050610ca95f830184610c87565b92915050565b5f82825260208201905092915050565b7f43616c6c6572206973206e6f7420746865206f776e65720000000000000000005f82015250565b5f610cf3601783610caf565b9150610cfe82610cbf565b602082019050919050565b5f6020820190508181035f830152610d2081610ce7565b9050919050565b610d3081610b8c565b82525050565b5f604082019050610d495f830185610b36565b610d566020830184610d27565b9392505050565b5f8115159050919050565b610d7181610d5d565b8114610d7b575f80fd5b50565b5f81519050610d8c81610d68565b92915050565b5f60208284031215610da757610da6610b5e565b5b5f610db484828501610d7e565b91505092915050565b7f5769746864726177616c206661696c65640000000000000000000000000000005f82015250565b5f610df1601183610caf565b9150610dfc82610dbd565b602082019050919050565b5f6020820190508181035f830152610e1e81610de5565b9050919050565b7f4e487b71000000000000000000000000000000000000000000000000000000005f52601160045260245ffd5b5f610e5c82610b8c565b9150610e6783610b8c565b9250828201905080821115610e7f57610e7e610e25565b5b92915050565b610e8e81610b25565b82525050565b610e9d81610ad0565b82525050565b610eac81610b8c565b82525050565b610ebb81610b06565b82525050565b61010082015f820151610ed65f850182610e85565b506020820151610ee96020850182610e85565b506040820151610efc6040850182610e94565b506060820151610f0f6060850182610e85565b506080820151610f226080850182610ea3565b5060a0820151610f3560a0850182610ea3565b5060c0820151610f4860c0850182610ea3565b5060e0820151610f5b60e0850182610eb2565b50505050565b5f61010082019050610f755f830184610ec1565b92915050565b5f81519050610f8981610b95565b92915050565b5f60208284031215610fa457610fa3610b5e565b5b5f610fb184828501610f7b565b91505092915050565b7f427579204d41544943206661696c6564000000000000000000000000000000005f82015250565b5f610fee601083610caf565b9150610ff982610fba565b602082019050919050565b5f6020820190508181035f83015261101b81610fe2565b9050919050565b7f427579204d41544943207375636365737366756c0000000000000000000000005f82015250565b5f611056601483610caf565b915061106182611022565b602082019050919050565b5f6020820190508181035f8301526110838161104a565b9050919050565b7f53656c6c204d41544943206661696c65640000000000000000000000000000005f82015250565b5f6110be601183610caf565b91506110c98261108a565b602082019050919050565b5f6020820190508181035f8301526110eb816110b2565b9050919050565b7f53656c6c204d41544943207375636365737366756c00000000000000000000005f82015250565b5f611126601583610caf565b9150611131826110f2565b602082019050919050565b5f6020820190508181035f8301526111538161111a565b9050919050565b5f60608201905061116d5f830186610b36565b61117a6020830185610b36565b6111876040830184610d27565b949350505050565b5f81519050919050565b5f81905092915050565b5f5b838110156111c05780820151818401526020810190506111a5565b5f8484015250505050565b5f6111d58261118f565b6111df8185611199565b93506111ef8185602086016111a3565b80840191505092915050565b5f61120682846111cb565b915081905092915050565b7f53544600000000000000000000000000000000000000000000000000000000005f82015250565b5f611245600383610caf565b915061125082611211565b602082019050919050565b5f6020820190508181035f83015261127281611239565b9050919050565b7f53410000000000000000000000000000000000000000000000000000000000005f82015250565b5f6112ad600283610caf565b91506112b882611279565b602082019050919050565b5f6020820190508181035f8301526112da816112a1565b905091905056fea26469706673582212203524072e49396c582a0c8a24cf909de8f5d23592933af541570140f1e9ca628964736f6c63430008150033",
  "immutableReferences": {},
  "source": "// SPDX-License-Identifier: GPL-2.0-or-later\npragma solidity ^0.8.0;\npragma abicoder v2;\n\nimport '@uniswap/v3-periphery/contracts/interfaces/ISwapRouter.sol';\nimport '@uniswap/v3-periphery/contracts/libraries/TransferHelper.sol';\nimport \"@openzeppelin/contracts/token/ERC20/IERC20.sol\";\n\ncontract ArbitrageBot {\n    ISwapRouter public constant swapRouter = ISwapRouter(0xE592427A0AEce92De3Edee1F18E0157C05861564);\n    address private owner;\n\n    address public constant USDC = 0x2791Bca1f2de4661ED88A30C99A7a9449Aa84174;\n    address public constant MATIC = 0x0000000000000000000000000000000000001010; // Replace with actual MATIC token address\n    uint24 public constant poolFee = 3000;\n\n    event OperationSuccessful(string message);\n    event OperationFailed(string message);\n    event Withdrawn(address token, uint256 amount);\n\n    modifier onlyOwner() {\n        require(msg.sender == owner, \"Caller is not the owner\");\n        _;\n    }\n\n    constructor() {\n        owner = msg.sender;\n    }\n\n    function buyMATIC(uint256 usdcAmount, uint256 amountOutMinimum) external onlyOwner {\n        // Transfer USDC from sender to contract\n        TransferHelper.safeTransferFrom(USDC, msg.sender, address(this), usdcAmount);\n        // Approve Uniswap router to spend USDC\n        TransferHelper.safeApprove(USDC, address(swapRouter), usdcAmount);\n\n        // Prepare swap parameters\n        ISwapRouter.ExactInputSingleParams memory params = \n            ISwapRouter.ExactInputSingleParams({\n                tokenIn: USDC,\n                tokenOut: MATIC,\n                fee: poolFee,\n                recipient: address(this),\n                deadline: block.timestamp + 15 minutes,\n                amountIn: usdcAmount,\n                amountOutMinimum: amountOutMinimum,\n                sqrtPriceLimitX96: 0\n            });\n\n        // Attempt swap\n        try swapRouter.exactInputSingle(params) {\n            emit OperationSuccessful(\"Buy MATIC successful\");\n        } catch {\n            emit OperationFailed(\"Buy MATIC failed\");\n        }\n    }\n\n    function sellMATIC(uint256 maticAmount, uint256 amountOutMinimum) external onlyOwner {\n        // Transfer MATIC from sender to contract\n        TransferHelper.safeTransferFrom(MATIC, msg.sender, address(this), maticAmount);\n        // Approve Uniswap router to spend MATIC\n        TransferHelper.safeApprove(MATIC, address(swapRouter), maticAmount);\n\n        // Prepare swap parameters\n        ISwapRouter.ExactInputSingleParams memory params = \n            ISwapRouter.ExactInputSingleParams({\n                tokenIn: MATIC,\n                tokenOut: USDC,\n                fee: poolFee,\n                recipient: address(this),\n                deadline: block.timestamp + 15 minutes,\n                amountIn: maticAmount,\n                amountOutMinimum: amountOutMinimum,\n                sqrtPriceLimitX96: 0\n            });\n\n        // Attempt swap\n        try swapRouter.exactInputSingle(params) {\n            emit OperationSuccessful(\"Sell MATIC successful\");\n        } catch {\n            emit OperationFailed(\"Sell MATIC failed\");\n        }\n    }\n\n    function withdrawToken(address token, uint256 amount) external onlyOwner {\n        bool success = IERC20(token).transfer(msg.sender, amount);\n        if (success) {\n            emit Withdrawn(token, amount);\n        } else {\n            emit OperationFailed(\"Withdrawal failed\");\n        }\n    }\n}\n",
  "sourcePath": "/home/qwe/Desktop/arbitrage_bot/smart_contracts/contracts/buy_sell.sol",
  "compiler": {
    "name": "solc",
    "version": "0.8.21+commit.d9974bed.Emscripten.clang"
  },
  "schemaVersion": "3.4.16",
  "updatedAt": "2023-12-13T16:41:23.999Z",
  "networkType": "ethereum",
  "devdoc": {
    "kind": "dev",
    "methods": {},
    "version": 1
  },
  "userdoc": {
    "kind": "user",
    "methods": {},
    "version": 1
  }
}